{
  "_format": "hh-sol-artifact-1",
  "contractName": "MyEpicNFT",
  "sourceName": "contracts/MyEpicNFT.sol",
  "abi": [
    {
      "inputs": [],
      "stateMutability": "nonpayable",
      "type": "constructor"
    },
    {
      "anonymous": false,
      "inputs": [
        {
          "indexed": true,
          "internalType": "address",
          "name": "owner",
          "type": "address"
        },
        {
          "indexed": true,
          "internalType": "address",
          "name": "approved",
          "type": "address"
        },
        {
          "indexed": true,
          "internalType": "uint256",
          "name": "tokenId",
          "type": "uint256"
        }
      ],
      "name": "Approval",
      "type": "event"
    },
    {
      "anonymous": false,
      "inputs": [
        {
          "indexed": true,
          "internalType": "address",
          "name": "owner",
          "type": "address"
        },
        {
          "indexed": true,
          "internalType": "address",
          "name": "operator",
          "type": "address"
        },
        {
          "indexed": false,
          "internalType": "bool",
          "name": "approved",
          "type": "bool"
        }
      ],
      "name": "ApprovalForAll",
      "type": "event"
    },
    {
      "anonymous": false,
      "inputs": [
        {
          "indexed": false,
          "internalType": "address",
          "name": "sender",
          "type": "address"
        },
        {
          "indexed": false,
          "internalType": "uint256",
          "name": "tokenId",
          "type": "uint256"
        }
      ],
      "name": "NewEpicNFTMinted",
      "type": "event"
    },
    {
      "anonymous": false,
      "inputs": [
        {
          "indexed": true,
          "internalType": "address",
          "name": "from",
          "type": "address"
        },
        {
          "indexed": true,
          "internalType": "address",
          "name": "to",
          "type": "address"
        },
        {
          "indexed": true,
          "internalType": "uint256",
          "name": "tokenId",
          "type": "uint256"
        }
      ],
      "name": "Transfer",
      "type": "event"
    },
    {
      "inputs": [
        {
          "internalType": "address",
          "name": "to",
          "type": "address"
        },
        {
          "internalType": "uint256",
          "name": "tokenId",
          "type": "uint256"
        }
      ],
      "name": "approve",
      "outputs": [],
      "stateMutability": "nonpayable",
      "type": "function"
    },
    {
      "inputs": [
        {
          "internalType": "address",
          "name": "owner",
          "type": "address"
        }
      ],
      "name": "balanceOf",
      "outputs": [
        {
          "internalType": "uint256",
          "name": "",
          "type": "uint256"
        }
      ],
      "stateMutability": "view",
      "type": "function"
    },
    {
      "inputs": [
        {
          "internalType": "uint256",
          "name": "tokenId",
          "type": "uint256"
        }
      ],
      "name": "getApproved",
      "outputs": [
        {
          "internalType": "address",
          "name": "",
          "type": "address"
        }
      ],
      "stateMutability": "view",
      "type": "function"
    },
    {
      "inputs": [],
      "name": "getTotalNFTsMintedSoFar",
      "outputs": [
        {
          "internalType": "uint256",
          "name": "",
          "type": "uint256"
        }
      ],
      "stateMutability": "view",
      "type": "function"
    },
    {
      "inputs": [
        {
          "internalType": "address",
          "name": "owner",
          "type": "address"
        },
        {
          "internalType": "address",
          "name": "operator",
          "type": "address"
        }
      ],
      "name": "isApprovedForAll",
      "outputs": [
        {
          "internalType": "bool",
          "name": "",
          "type": "bool"
        }
      ],
      "stateMutability": "view",
      "type": "function"
    },
    {
      "inputs": [],
      "name": "makeAnEpicNFT",
      "outputs": [],
      "stateMutability": "nonpayable",
      "type": "function"
    },
    {
      "inputs": [],
      "name": "name",
      "outputs": [
        {
          "internalType": "string",
          "name": "",
          "type": "string"
        }
      ],
      "stateMutability": "view",
      "type": "function"
    },
    {
      "inputs": [
        {
          "internalType": "uint256",
          "name": "tokenId",
          "type": "uint256"
        }
      ],
      "name": "ownerOf",
      "outputs": [
        {
          "internalType": "address",
          "name": "",
          "type": "address"
        }
      ],
      "stateMutability": "view",
      "type": "function"
    },
    {
      "inputs": [
        {
          "internalType": "uint256",
          "name": "tokenId",
          "type": "uint256"
        }
      ],
      "name": "pickRandomFirstWord",
      "outputs": [
        {
          "internalType": "string",
          "name": "",
          "type": "string"
        }
      ],
      "stateMutability": "view",
      "type": "function"
    },
    {
      "inputs": [
        {
          "internalType": "uint256",
          "name": "tokenId",
          "type": "uint256"
        }
      ],
      "name": "pickRandomSecondWord",
      "outputs": [
        {
          "internalType": "string",
          "name": "",
          "type": "string"
        }
      ],
      "stateMutability": "view",
      "type": "function"
    },
    {
      "inputs": [
        {
          "internalType": "uint256",
          "name": "tokenId",
          "type": "uint256"
        }
      ],
      "name": "pickRandomThirdWord",
      "outputs": [
        {
          "internalType": "string",
          "name": "",
          "type": "string"
        }
      ],
      "stateMutability": "view",
      "type": "function"
    },
    {
      "inputs": [
        {
          "internalType": "address",
          "name": "from",
          "type": "address"
        },
        {
          "internalType": "address",
          "name": "to",
          "type": "address"
        },
        {
          "internalType": "uint256",
          "name": "tokenId",
          "type": "uint256"
        }
      ],
      "name": "safeTransferFrom",
      "outputs": [],
      "stateMutability": "nonpayable",
      "type": "function"
    },
    {
      "inputs": [
        {
          "internalType": "address",
          "name": "from",
          "type": "address"
        },
        {
          "internalType": "address",
          "name": "to",
          "type": "address"
        },
        {
          "internalType": "uint256",
          "name": "tokenId",
          "type": "uint256"
        },
        {
          "internalType": "bytes",
          "name": "data",
          "type": "bytes"
        }
      ],
      "name": "safeTransferFrom",
      "outputs": [],
      "stateMutability": "nonpayable",
      "type": "function"
    },
    {
      "inputs": [
        {
          "internalType": "address",
          "name": "operator",
          "type": "address"
        },
        {
          "internalType": "bool",
          "name": "approved",
          "type": "bool"
        }
      ],
      "name": "setApprovalForAll",
      "outputs": [],
      "stateMutability": "nonpayable",
      "type": "function"
    },
    {
      "inputs": [
        {
          "internalType": "bytes4",
          "name": "interfaceId",
          "type": "bytes4"
        }
      ],
      "name": "supportsInterface",
      "outputs": [
        {
          "internalType": "bool",
          "name": "",
          "type": "bool"
        }
      ],
      "stateMutability": "view",
      "type": "function"
    },
    {
      "inputs": [],
      "name": "symbol",
      "outputs": [
        {
          "internalType": "string",
          "name": "",
          "type": "string"
        }
      ],
      "stateMutability": "view",
      "type": "function"
    },
    {
      "inputs": [
        {
          "internalType": "uint256",
          "name": "tokenId",
          "type": "uint256"
        }
      ],
      "name": "tokenURI",
      "outputs": [
        {
          "internalType": "string",
          "name": "",
          "type": "string"
        }
      ],
      "stateMutability": "view",
      "type": "function"
    },
    {
      "inputs": [
        {
          "internalType": "address",
          "name": "from",
          "type": "address"
        },
        {
          "internalType": "address",
          "name": "to",
          "type": "address"
        },
        {
          "internalType": "uint256",
          "name": "tokenId",
          "type": "uint256"
        }
      ],
      "name": "transferFrom",
      "outputs": [],
      "stateMutability": "nonpayable",
      "type": "function"
    }
  ],
  "bytecode": "0x6080604052604051806102e001604052806102b68152602001620042606102b69139600890805190602001906200003892919062000643565b506040518060a001604052806040518060400160405280600981526020017f54756261696e612031000000000000000000000000000000000000000000000081525081526020016040518060400160405280600781526020017f47756172616e610000000000000000000000000000000000000000000000000081525081526020016040518060400160405280600581526020017f46616e746100000000000000000000000000000000000000000000000000000081525081526020016040518060400160405280600481526020017f446f6c790000000000000000000000000000000000000000000000000000000081525081526020016040518060400160405280600781526020017f477261706574650000000000000000000000000000000000000000000000000081525081525060099060056200017b929190620006d4565b506040518060c001604052806040518060400160405280600781526020017f4d6f71756563610000000000000000000000000000000000000000000000000081525081526020016040518060400160405280600881526020017f4665696a6f61646100000000000000000000000000000000000000000000000081525081526020016040518060400160405280600681526020017f566174617061000000000000000000000000000000000000000000000000000081525081526020016040518060400160405280600781526020017f41636172616a650000000000000000000000000000000000000000000000000081525081526020016040518060400160405280600681526020017f526162616461000000000000000000000000000000000000000000000000000081525081526020016040518060400160405280600a81526020017f446f62726164696e686100000000000000000000000000000000000000000000815250815250600a906006620002f99291906200073b565b506040518060c001604052806040518060400160405280600881526020017f4d61726163756a6100000000000000000000000000000000000000000000000081525081526020016040518060400160405280600781526020017f506974616e67610000000000000000000000000000000000000000000000000081525081526020016040518060400160405280600881526020017f47726176696f6c6100000000000000000000000000000000000000000000000081525081526020016040518060400160405280600481526020017f416361690000000000000000000000000000000000000000000000000000000081525081526020016040518060400160405280600681526020017f42616e616e61000000000000000000000000000000000000000000000000000081525081526020016040518060400160405280600581526020017f416d6f7261000000000000000000000000000000000000000000000000000000815250815250600b906006620004779291906200073b565b503480156200048557600080fd5b506040518060400160405280600981526020017f4368617665734e465400000000000000000000000000000000000000000000008152506040518060400160405280600581526020017f434841564f00000000000000000000000000000000000000000000000000000081525081600090805190602001906200050a92919062000643565b5080600190805190602001906200052392919062000643565b505050620005716040518060400160405280601c81526020017f4d657520636f6e747261746f206465204e46542120546368752d6875000000008152506200057760201b620010661760201c565b6200095c565b62000617816040516024016200058e919062000870565b6040516020818303038152906040527f41304fac000000000000000000000000000000000000000000000000000000007bffffffffffffffffffffffffffffffffffffffffffffffffffffffff19166020820180517bffffffffffffffffffffffffffffffffffffffffffffffffffffffff83818316178352505050506200061a60201b60201c565b50565b60008151905060006a636f6e736f6c652e6c6f679050602083016000808483855afa5050505050565b8280546200065190620008e6565b90600052602060002090601f016020900481019282620006755760008555620006c1565b82601f106200069057805160ff1916838001178555620006c1565b82800160010185558215620006c1579182015b82811115620006c0578251825591602001919060010190620006a3565b5b509050620006d09190620007a2565b5090565b82805482825590600052602060002090810192821562000728579160200282015b82811115620007275782518290805190602001906200071692919062000643565b5091602001919060010190620006f5565b5b509050620007379190620007c1565b5090565b8280548282559060005260206000209081019282156200078f579160200282015b828111156200078e5782518290805190602001906200077d92919062000643565b50916020019190600101906200075c565b5b5090506200079e9190620007c1565b5090565b5b80821115620007bd576000816000905550600101620007a3565b5090565b5b80821115620007e55760008181620007db9190620007e9565b50600101620007c2565b5090565b508054620007f790620008e6565b6000825580601f106200080b57506200082c565b601f0160209004906000526020600020908101906200082b9190620007a2565b5b50565b60006200083c8262000894565b6200084881856200089f565b93506200085a818560208601620008b0565b62000865816200094b565b840191505092915050565b600060208201905081810360008301526200088c81846200082f565b905092915050565b600081519050919050565b600082825260208201905092915050565b60005b83811015620008d0578082015181840152602081019050620008b3565b83811115620008e0576000848401525b50505050565b60006002820490506001821680620008ff57607f821691505b602082108114156200091657620009156200091c565b5b50919050565b7f4e487b7100000000000000000000000000000000000000000000000000000000600052602260045260246000fd5b6000601f19601f8301169050919050565b6138f4806200096c6000396000f3fe608060405234801561001057600080fd5b50600436106101165760003560e01c806370a08231116100a2578063b88d4fde11610071578063b88d4fde14610305578063c575757a14610321578063c87b56dd14610351578063de9d132f14610381578063e985e9c51461038b57610116565b806370a082311461026b57806395d89b411461029b578063a22cb465146102b9578063b187301f146102d557610116565b8063095ea7b3116100e9578063095ea7b3146101b757806323b872dd146101d35780632de38d68146101ef57806342842e0e1461021f5780636352211e1461023b57610116565b806301ffc9a71461011b578063060475901461014b57806306fdde0314610169578063081812fc14610187575b600080fd5b610135600480360381019061013091906126ee565b6103bb565b6040516101429190612d6c565b60405180910390f35b61015361049d565b6040516101609190612f67565b60405180910390f35b6101716104ae565b60405161017e9190612d87565b60405180910390f35b6101a1600480360381019061019c9190612740565b610540565b6040516101ae9190612cdc565b60405180910390f35b6101d160048036038101906101cc91906126b2565b610586565b005b6101ed60048036038101906101e891906125ac565b61069e565b005b61020960048036038101906102049190612740565b6106fe565b6040516102169190612d87565b60405180910390f35b610239600480360381019061023491906125ac565b61081c565b005b61025560048036038101906102509190612740565b61083c565b6040516102629190612cdc565b60405180910390f35b61028560048036038101906102809190612547565b6108c3565b6040516102929190612f67565b60405180910390f35b6102a361097b565b6040516102b09190612d87565b60405180910390f35b6102d360048036038101906102ce9190612676565b610a0d565b005b6102ef60048036038101906102ea9190612740565b610a23565b6040516102fc9190612d87565b60405180910390f35b61031f600480360381019061031a91906125fb565b610b41565b005b61033b60048036038101906103369190612740565b610ba3565b6040516103489190612d87565b60405180910390f35b61036b60048036038101906103669190612740565b610cc1565b6040516103789190612d87565b60405180910390f35b610389610dd4565b005b6103a560048036038101906103a09190612570565b610fd2565b6040516103b29190612d6c565b60405180910390f35b60007f80ac58cd000000000000000000000000000000000000000000000000000000007bffffffffffffffffffffffffffffffffffffffffffffffffffffffff1916827bffffffffffffffffffffffffffffffffffffffffffffffffffffffff1916148061048657507f5b5e139f000000000000000000000000000000000000000000000000000000007bffffffffffffffffffffffffffffffffffffffffffffffffffffffff1916827bffffffffffffffffffffffffffffffffffffffffffffffffffffffff1916145b806104965750610495826110ff565b5b9050919050565b60006104a96007611169565b905090565b6060600080546104bd906131c7565b80601f01602080910402602001604051908101604052809291908181526020018280546104e9906131c7565b80156105365780601f1061050b57610100808354040283529160200191610536565b820191906000526020600020905b81548152906001019060200180831161051957829003601f168201915b5050505050905090565b600061054b82611177565b6004600083815260200190815260200160002060009054906101000a900473ffffffffffffffffffffffffffffffffffffffff169050919050565b60006105918261083c565b90508073ffffffffffffffffffffffffffffffffffffffff168373ffffffffffffffffffffffffffffffffffffffff161415610602576040517f08c379a00000000000000000000000000000000000000000000000000000000081526004016105f990612f27565b60405180910390fd5b8073ffffffffffffffffffffffffffffffffffffffff166106216111c2565b73ffffffffffffffffffffffffffffffffffffffff161480610650575061064f8161064a6111c2565b610fd2565b5b61068f576040517f08c379a000000000000000000000000000000000000000000000000000000000815260040161068690612f47565b60405180910390fd5b61069983836111ca565b505050565b6106af6106a96111c2565b82611283565b6106ee576040517f08c379a00000000000000000000000000000000000000000000000000000000081526004016106e590612de7565b60405180910390fd5b6106f9838383611318565b505050565b6060600061073261070e84611612565b60405160200161071e9190612c31565b604051602081830303815290604052611736565b905060098054905081610745919061322a565b905060098181548110610781577f4e487b7100000000000000000000000000000000000000000000000000000000600052603260045260246000fd5b906000526020600020018054610796906131c7565b80601f01602080910402602001604051908101604052809291908181526020018280546107c2906131c7565b801561080f5780601f106107e45761010080835404028352916020019161080f565b820191906000526020600020905b8154815290600101906020018083116107f257829003601f168201915b5050505050915050919050565b61083783838360405180602001604052806000815250610b41565b505050565b60008061084883611769565b9050600073ffffffffffffffffffffffffffffffffffffffff168173ffffffffffffffffffffffffffffffffffffffff1614156108ba576040517f08c379a00000000000000000000000000000000000000000000000000000000081526004016108b190612f07565b60405180910390fd5b80915050919050565b60008073ffffffffffffffffffffffffffffffffffffffff168273ffffffffffffffffffffffffffffffffffffffff161415610934576040517f08c379a000000000000000000000000000000000000000000000000000000000815260040161092b90612ea7565b60405180910390fd5b600360008373ffffffffffffffffffffffffffffffffffffffff1673ffffffffffffffffffffffffffffffffffffffff168152602001908152602001600020549050919050565b60606001805461098a906131c7565b80601f01602080910402602001604051908101604052809291908181526020018280546109b6906131c7565b8015610a035780601f106109d857610100808354040283529160200191610a03565b820191906000526020600020905b8154815290600101906020018083116109e657829003601f168201915b5050505050905090565b610a1f610a186111c2565b83836117a6565b5050565b60606000610a57610a3384611612565b604051602001610a439190612c0f565b604051602081830303815290604052611736565b9050600a8054905081610a6a919061322a565b9050600a8181548110610aa6577f4e487b7100000000000000000000000000000000000000000000000000000000600052603260045260246000fd5b906000526020600020018054610abb906131c7565b80601f0160208091040260200160405190810160405280929190818152602001828054610ae7906131c7565b8015610b345780601f10610b0957610100808354040283529160200191610b34565b820191906000526020600020905b815481529060010190602001808311610b1757829003601f168201915b5050505050915050919050565b610b52610b4c6111c2565b83611283565b610b91576040517f08c379a0000000000000000000000000000000000000000000000000000000008152600401610b8890612de7565b60405180910390fd5b610b9d84848484611913565b50505050565b60606000610bd7610bb384611612565b604051602001610bc39190612c53565b604051602081830303815290604052611736565b9050600b8054905081610bea919061322a565b9050600b8181548110610c26577f4e487b7100000000000000000000000000000000000000000000000000000000600052603260045260246000fd5b906000526020600020018054610c3b906131c7565b80601f0160208091040260200160405190810160405280929190818152602001828054610c67906131c7565b8015610cb45780601f10610c8957610100808354040283529160200191610cb4565b820191906000526020600020905b815481529060010190602001808311610c9757829003601f168201915b5050505050915050919050565b6060610ccc82611177565b6000600660008481526020019081526020016000208054610cec906131c7565b80601f0160208091040260200160405190810160405280929190818152602001828054610d18906131c7565b8015610d655780601f10610d3a57610100808354040283529160200191610d65565b820191906000526020600020905b815481529060010190602001808311610d4857829003601f168201915b505050505090506000610d7661196f565b9050600081511415610d8c578192505050610dcf565b600082511115610dc1578082604051602001610da9929190612b8b565b60405160208183030381529060405292505050610dcf565b610dca84611986565b925050505b919050565b6000610de06007611169565b90506031610dee6007611169565b1115610df957600080fd5b6000610e04826106fe565b90506000610e1183610a23565b90506000610e1e84610ba3565b90506000838383604051602001610e3793929190612baf565b60405160208183030381529060405290506000600882604051602001610e5e929190612be0565b60405160208183030381529060405290506000610ea383610e7e846119ee565b604051602001610e8f929190612c75565b6040516020818303038152906040526119ee565b9050600081604051602001610eb89190612cba565b6040516020818303038152906040529050610f076040518060400160405280601581526020017f0a2d2d2d2d2d2d2d2d2d2d2d2d2d2d2d2d2d2d2d2d0000000000000000000000815250611066565b610f1081611066565b610f4e6040518060400160405280601581526020017f2d2d2d2d2d2d2d2d2d2d2d2d2d2d2d2d2d2d2d2d0a0000000000000000000000815250611066565b610f583389611bac565b610f628882611bca565b610f6c6007611c3e565b610f8f60405180606001604052806024815260200161385b602491398933611c54565b7febb98688741ffa4c7589bf325de30cf7becb63de567842e1ccdb6cb949fdc82c3389604051610fc0929190612d43565b60405180910390a15050505050505050565b6000600560008473ffffffffffffffffffffffffffffffffffffffff1673ffffffffffffffffffffffffffffffffffffffff16815260200190815260200160002060008373ffffffffffffffffffffffffffffffffffffffff1673ffffffffffffffffffffffffffffffffffffffff16815260200190815260200160002060009054906101000a900460ff16905092915050565b6110fc8160405160240161107a9190612d87565b6040516020818303038152906040527f41304fac000000000000000000000000000000000000000000000000000000007bffffffffffffffffffffffffffffffffffffffffffffffffffffffff19166020820180517bffffffffffffffffffffffffffffffffffffffffffffffffffffffff8381831617835250505050611cf3565b50565b60007f01ffc9a7000000000000000000000000000000000000000000000000000000007bffffffffffffffffffffffffffffffffffffffffffffffffffffffff1916827bffffffffffffffffffffffffffffffffffffffffffffffffffffffff1916149050919050565b600081600001549050919050565b61118081611d1c565b6111bf576040517f08c379a00000000000000000000000000000000000000000000000000000000081526004016111b690612f07565b60405180910390fd5b50565b600033905090565b816004600083815260200190815260200160002060006101000a81548173ffffffffffffffffffffffffffffffffffffffff021916908373ffffffffffffffffffffffffffffffffffffffff160217905550808273ffffffffffffffffffffffffffffffffffffffff1661123d8361083c565b73ffffffffffffffffffffffffffffffffffffffff167f8c5be1e5ebec7d5bd14f71427d1e84f3dd0314c0f7b2291e5b200ac8c7c3b92560405160405180910390a45050565b60008061128f8361083c565b90508073ffffffffffffffffffffffffffffffffffffffff168473ffffffffffffffffffffffffffffffffffffffff1614806112d157506112d08185610fd2565b5b8061130f57508373ffffffffffffffffffffffffffffffffffffffff166112f784610540565b73ffffffffffffffffffffffffffffffffffffffff16145b91505092915050565b8273ffffffffffffffffffffffffffffffffffffffff166113388261083c565b73ffffffffffffffffffffffffffffffffffffffff161461138e576040517f08c379a000000000000000000000000000000000000000000000000000000000815260040161138590612e27565b60405180910390fd5b600073ffffffffffffffffffffffffffffffffffffffff168273ffffffffffffffffffffffffffffffffffffffff1614156113fe576040517f08c379a00000000000000000000000000000000000000000000000000000000081526004016113f590612e67565b60405180910390fd5b61140b8383836001611d5d565b8273ffffffffffffffffffffffffffffffffffffffff1661142b8261083c565b73ffffffffffffffffffffffffffffffffffffffff1614611481576040517f08c379a000000000000000000000000000000000000000000000000000000000815260040161147890612e27565b60405180910390fd5b6004600082815260200190815260200160002060006101000a81549073ffffffffffffffffffffffffffffffffffffffff02191690556001600360008573ffffffffffffffffffffffffffffffffffffffff1673ffffffffffffffffffffffffffffffffffffffff168152602001908152602001600020600082825403925050819055506001600360008473ffffffffffffffffffffffffffffffffffffffff1673ffffffffffffffffffffffffffffffffffffffff16815260200190815260200160002060008282540192505081905550816002600083815260200190815260200160002060006101000a81548173ffffffffffffffffffffffffffffffffffffffff021916908373ffffffffffffffffffffffffffffffffffffffff160217905550808273ffffffffffffffffffffffffffffffffffffffff168473ffffffffffffffffffffffffffffffffffffffff167fddf252ad1be2c89b69c2b068fc378daa952ba7f163c4a11628f55a4df523b3ef60405160405180910390a461160d8383836001611d63565b505050565b60606000600161162184611d69565b01905060008167ffffffffffffffff811115611666577f4e487b7100000000000000000000000000000000000000000000000000000000600052604160045260246000fd5b6040519080825280601f01601f1916602001820160405280156116985781602001600182028036833780820191505090505b509050600082602001820190505b60011561172b578080600190039150507f3031323334353637383961626364656600000000000000000000000000000000600a86061a8153600a8581611715577f4e487b7100000000000000000000000000000000000000000000000000000000600052601260045260246000fd5b04945060008514156117265761172b565b6116a6565b819350505050919050565b6000816040516020016117499190612b74565b6040516020818303038152906040528051906020012060001c9050919050565b60006002600083815260200190815260200160002060009054906101000a900473ffffffffffffffffffffffffffffffffffffffff169050919050565b8173ffffffffffffffffffffffffffffffffffffffff168373ffffffffffffffffffffffffffffffffffffffff161415611815576040517f08c379a000000000000000000000000000000000000000000000000000000000815260040161180c90612e87565b60405180910390fd5b80600560008573ffffffffffffffffffffffffffffffffffffffff1673ffffffffffffffffffffffffffffffffffffffff16815260200190815260200160002060008473ffffffffffffffffffffffffffffffffffffffff1673ffffffffffffffffffffffffffffffffffffffff16815260200190815260200160002060006101000a81548160ff0219169083151502179055508173ffffffffffffffffffffffffffffffffffffffff168373ffffffffffffffffffffffffffffffffffffffff167f17307eab39ab6107e8899845ad3d59bd9653f200f220920489ca2b5937696c31836040516119069190612d6c565b60405180910390a3505050565b61191e848484611318565b61192a84848484611fa0565b611969576040517f08c379a000000000000000000000000000000000000000000000000000000000815260040161196090612e07565b60405180910390fd5b50505050565b606060405180602001604052806000815250905090565b606061199182611177565b600061199b61196f565b905060008151116119bb57604051806020016040528060008152506119e6565b806119c584611612565b6040516020016119d6929190612b8b565b6040516020818303038152906040525b915050919050565b60606000825190506000811415611a175760405180602001604052806000815250915050611ba7565b60006003600283611a289190613030565b611a329190613086565b6004611a3e91906130b7565b90506000602082611a4f9190613030565b67ffffffffffffffff811115611a8e577f4e487b7100000000000000000000000000000000000000000000000000000000600052604160045260246000fd5b6040519080825280601f01601f191660200182016040528015611ac05781602001600182028036833780820191505090505b509050600060405180606001604052806040815260200161387f604091399050600181016020830160005b86811015611b645760038101905062ffffff818a015116603f8160121c168401518060081b905060ff603f83600c1c1686015116810190508060081b905060ff603f8360061c1686015116810190508060081b905060ff603f831686015116810190508060e01b90508084526004840193505050611aeb565b506003860660018114611b7e5760028114611b8e57611b99565b613d3d60f01b6002830352611b99565b603d60f81b60018303525b508484525050819450505050505b919050565b611bc6828260405180602001604052806000815250612137565b5050565b611bd382611d1c565b611c12576040517f08c379a0000000000000000000000000000000000000000000000000000000008152600401611c0990612ec7565b60405180910390fd5b80600660008481526020019081526020016000209080519060200190611c399291906123d3565b505050565b6001816000016000828254019250508190555050565b611cee838383604051602401611c6c93929190612da9565b6040516020818303038152906040527fe3849f79000000000000000000000000000000000000000000000000000000007bffffffffffffffffffffffffffffffffffffffffffffffffffffffff19166020820180517bffffffffffffffffffffffffffffffffffffffffffffffffffffffff8381831617835250505050611cf3565b505050565b60008151905060006a636f6e736f6c652e6c6f679050602083016000808483855afa5050505050565b60008073ffffffffffffffffffffffffffffffffffffffff16611d3e83611769565b73ffffffffffffffffffffffffffffffffffffffff1614159050919050565b50505050565b50505050565b600080600090507a184f03e93ff9f4daa797ed6e38ed64bf6a1f0100000000000000008310611ded577a184f03e93ff9f4daa797ed6e38ed64bf6a1f0100000000000000008381611de3577f4e487b7100000000000000000000000000000000000000000000000000000000600052601260045260246000fd5b0492506040810190505b6d04ee2d6d415b85acef81000000008310611e50576d04ee2d6d415b85acef81000000008381611e46577f4e487b7100000000000000000000000000000000000000000000000000000000600052601260045260246000fd5b0492506020810190505b662386f26fc100008310611ea557662386f26fc100008381611e9b577f4e487b7100000000000000000000000000000000000000000000000000000000600052601260045260246000fd5b0492506010810190505b6305f5e1008310611ef4576305f5e1008381611eea577f4e487b7100000000000000000000000000000000000000000000000000000000600052601260045260246000fd5b0492506008810190505b6127108310611f3f576127108381611f35577f4e487b7100000000000000000000000000000000000000000000000000000000600052601260045260246000fd5b0492506004810190505b60648310611f885760648381611f7e577f4e487b7100000000000000000000000000000000000000000000000000000000600052601260045260246000fd5b0492506002810190505b600a8310611f97576001810190505b80915050919050565b6000611fc18473ffffffffffffffffffffffffffffffffffffffff16612192565b1561212a578373ffffffffffffffffffffffffffffffffffffffff1663150b7a02611fea6111c2565b8786866040518563ffffffff1660e01b815260040161200c9493929190612cf7565b602060405180830381600087803b15801561202657600080fd5b505af192505050801561205757506040513d601f19601f820116820180604052508101906120549190612717565b60015b6120da573d8060008114612087576040519150601f19603f3d011682016040523d82523d6000602084013e61208c565b606091505b506000815114156120d2576040517f08c379a00000000000000000000000000000000000000000000000000000000081526004016120c990612e07565b60405180910390fd5b805181602001fd5b63150b7a0260e01b7bffffffffffffffffffffffffffffffffffffffffffffffffffffffff1916817bffffffffffffffffffffffffffffffffffffffffffffffffffffffff19161491505061212f565b600190505b949350505050565b61214183836121b5565b61214e6000848484611fa0565b61218d576040517f08c379a000000000000000000000000000000000000000000000000000000000815260040161218490612e07565b60405180910390fd5b505050565b6000808273ffffffffffffffffffffffffffffffffffffffff163b119050919050565b600073ffffffffffffffffffffffffffffffffffffffff168273ffffffffffffffffffffffffffffffffffffffff161415612225576040517f08c379a000000000000000000000000000000000000000000000000000000000815260040161221c90612ee7565b60405180910390fd5b61222e81611d1c565b1561226e576040517f08c379a000000000000000000000000000000000000000000000000000000000815260040161226590612e47565b60405180910390fd5b61227c600083836001611d5d565b61228581611d1c565b156122c5576040517f08c379a00000000000000000000000000000000000000000000000000000000081526004016122bc90612e47565b60405180910390fd5b6001600360008473ffffffffffffffffffffffffffffffffffffffff1673ffffffffffffffffffffffffffffffffffffffff16815260200190815260200160002060008282540192505081905550816002600083815260200190815260200160002060006101000a81548173ffffffffffffffffffffffffffffffffffffffff021916908373ffffffffffffffffffffffffffffffffffffffff160217905550808273ffffffffffffffffffffffffffffffffffffffff16600073ffffffffffffffffffffffffffffffffffffffff167fddf252ad1be2c89b69c2b068fc378daa952ba7f163c4a11628f55a4df523b3ef60405160405180910390a46123cf600083836001611d63565b5050565b8280546123df906131c7565b90600052602060002090601f0160209004810192826124015760008555612448565b82601f1061241a57805160ff1916838001178555612448565b82800160010185558215612448579182015b8281111561244757825182559160200191906001019061242c565b5b5090506124559190612459565b5090565b5b8082111561247257600081600090555060010161245a565b5090565b600061248961248484612fa7565b612f82565b9050828152602081018484840111156124a157600080fd5b6124ac848285613185565b509392505050565b6000813590506124c3816137fe565b92915050565b6000813590506124d881613815565b92915050565b6000813590506124ed8161382c565b92915050565b6000815190506125028161382c565b92915050565b600082601f83011261251957600080fd5b8135612529848260208601612476565b91505092915050565b60008135905061254181613843565b92915050565b60006020828403121561255957600080fd5b6000612567848285016124b4565b91505092915050565b6000806040838503121561258357600080fd5b6000612591858286016124b4565b92505060206125a2858286016124b4565b9150509250929050565b6000806000606084860312156125c157600080fd5b60006125cf868287016124b4565b93505060206125e0868287016124b4565b92505060406125f186828701612532565b9150509250925092565b6000806000806080858703121561261157600080fd5b600061261f878288016124b4565b9450506020612630878288016124b4565b935050604061264187828801612532565b925050606085013567ffffffffffffffff81111561265e57600080fd5b61266a87828801612508565b91505092959194509250565b6000806040838503121561268957600080fd5b6000612697858286016124b4565b92505060206126a8858286016124c9565b9150509250929050565b600080604083850312156126c557600080fd5b60006126d3858286016124b4565b92505060206126e485828601612532565b9150509250929050565b60006020828403121561270057600080fd5b600061270e848285016124de565b91505092915050565b60006020828403121561272957600080fd5b6000612737848285016124f3565b91505092915050565b60006020828403121561275257600080fd5b600061276084828501612532565b91505092915050565b61277281613111565b82525050565b61278181613123565b82525050565b600061279282612fed565b61279c8185613003565b93506127ac818560208601613194565b6127b581613317565b840191505092915050565b60006127cb82612ff8565b6127d58185613014565b93506127e5818560208601613194565b6127ee81613317565b840191505092915050565b600061280482612ff8565b61280e8185613025565b935061281e818560208601613194565b80840191505092915050565b60008154612837816131c7565b6128418186613025565b9450600182166000811461285c576001811461286d576128a0565b60ff198316865281860193506128a0565b61287685612fd8565b60005b8381101561289857815481890152600182019150602081019050612879565b838801955050505b50505092915050565b60006128b6602d83613014565b91506128c182613328565b604082019050919050565b60006128d9603283613014565b91506128e482613377565b604082019050919050565b60006128fc602583613014565b9150612907826133c6565b604082019050919050565b600061291f601c83613014565b915061292a82613415565b602082019050919050565b6000612942602483613014565b915061294d8261343e565b604082019050919050565b6000612965601983613014565b91506129708261348d565b602082019050919050565b6000612988600f83613025565b9150612993826134b6565b600f82019050919050565b60006129ab600d83613025565b91506129b6826134df565b600d82019050919050565b60006129ce602983613014565b91506129d982613508565b604082019050919050565b60006129f1601083613025565b91506129fc82613557565b601082019050919050565b6000612a14602e83613014565b9150612a1f82613580565b604082019050919050565b6000612a37600283613025565b9150612a42826135cf565b600282019050919050565b6000612a5a602083613014565b9150612a65826135f8565b602082019050919050565b6000612a7d601083613025565b9150612a8882613621565b601082019050919050565b6000612aa0600a83613025565b9150612aab8261364a565b600a82019050919050565b6000612ac3601883613014565b9150612ace82613673565b602082019050919050565b6000612ae6602183613014565b9150612af18261369c565b604082019050919050565b6000612b09601d83613025565b9150612b14826136eb565b601d82019050919050565b6000612b2c603d83613014565b9150612b3782613714565b604082019050919050565b6000612b4f606d83613025565b9150612b5a82613763565b606d82019050919050565b612b6e8161317b565b82525050565b6000612b8082846127f9565b915081905092915050565b6000612b9782856127f9565b9150612ba382846127f9565b91508190509392505050565b6000612bbb82866127f9565b9150612bc782856127f9565b9150612bd382846127f9565b9150819050949350505050565b6000612bec828561282a565b9150612bf882846127f9565b9150612c038261299e565b91508190509392505050565b6000612c1a8261297b565b9150612c2682846127f9565b915081905092915050565b6000612c3c826129e4565b9150612c4882846127f9565b915081905092915050565b6000612c5e82612a70565b9150612c6a82846127f9565b915081905092915050565b6000612c8082612a93565b9150612c8c82856127f9565b9150612c9782612b42565b9150612ca382846127f9565b9150612cae82612a2a565b91508190509392505050565b6000612cc582612afc565b9150612cd182846127f9565b915081905092915050565b6000602082019050612cf16000830184612769565b92915050565b6000608082019050612d0c6000830187612769565b612d196020830186612769565b612d266040830185612b65565b8181036060830152612d388184612787565b905095945050505050565b6000604082019050612d586000830185612769565b612d656020830184612b65565b9392505050565b6000602082019050612d816000830184612778565b92915050565b60006020820190508181036000830152612da181846127c0565b905092915050565b60006060820190508181036000830152612dc381866127c0565b9050612dd26020830185612b65565b612ddf6040830184612769565b949350505050565b60006020820190508181036000830152612e00816128a9565b9050919050565b60006020820190508181036000830152612e20816128cc565b9050919050565b60006020820190508181036000830152612e40816128ef565b9050919050565b60006020820190508181036000830152612e6081612912565b9050919050565b60006020820190508181036000830152612e8081612935565b9050919050565b60006020820190508181036000830152612ea081612958565b9050919050565b60006020820190508181036000830152612ec0816129c1565b9050919050565b60006020820190508181036000830152612ee081612a07565b9050919050565b60006020820190508181036000830152612f0081612a4d565b9050919050565b60006020820190508181036000830152612f2081612ab6565b9050919050565b60006020820190508181036000830152612f4081612ad9565b9050919050565b60006020820190508181036000830152612f6081612b1f565b9050919050565b6000602082019050612f7c6000830184612b65565b92915050565b6000612f8c612f9d565b9050612f9882826131f9565b919050565b6000604051905090565b600067ffffffffffffffff821115612fc257612fc16132e8565b5b612fcb82613317565b9050602081019050919050565b60008190508160005260206000209050919050565b600081519050919050565b600081519050919050565b600082825260208201905092915050565b600082825260208201905092915050565b600081905092915050565b600061303b8261317b565b91506130468361317b565b9250827fffffffffffffffffffffffffffffffffffffffffffffffffffffffffffffffff0382111561307b5761307a61325b565b5b828201905092915050565b60006130918261317b565b915061309c8361317b565b9250826130ac576130ab61328a565b5b828204905092915050565b60006130c28261317b565b91506130cd8361317b565b9250817fffffffffffffffffffffffffffffffffffffffffffffffffffffffffffffffff04831182151516156131065761310561325b565b5b828202905092915050565b600061311c8261315b565b9050919050565b60008115159050919050565b60007fffffffff0000000000000000000000000000000000000000000000000000000082169050919050565b600073ffffffffffffffffffffffffffffffffffffffff82169050919050565b6000819050919050565b82818337600083830152505050565b60005b838110156131b2578082015181840152602081019050613197565b838111156131c1576000848401525b50505050565b600060028204905060018216806131df57607f821691505b602082108114156131f3576131f26132b9565b5b50919050565b61320282613317565b810181811067ffffffffffffffff82111715613221576132206132e8565b5b80604052505050565b60006132358261317b565b91506132408361317b565b9250826132505761324f61328a565b5b828206905092915050565b7f4e487b7100000000000000000000000000000000000000000000000000000000600052601160045260246000fd5b7f4e487b7100000000000000000000000000000000000000000000000000000000600052601260045260246000fd5b7f4e487b7100000000000000000000000000000000000000000000000000000000600052602260045260246000fd5b7f4e487b7100000000000000000000000000000000000000000000000000000000600052604160045260246000fd5b6000601f19601f8301169050919050565b7f4552433732313a2063616c6c6572206973206e6f7420746f6b656e206f776e6560008201527f72206f7220617070726f76656400000000000000000000000000000000000000602082015250565b7f4552433732313a207472616e7366657220746f206e6f6e20455243373231526560008201527f63656976657220696d706c656d656e7465720000000000000000000000000000602082015250565b7f4552433732313a207472616e736665722066726f6d20696e636f72726563742060008201527f6f776e6572000000000000000000000000000000000000000000000000000000602082015250565b7f4552433732313a20746f6b656e20616c7265616479206d696e74656400000000600082015250565b7f4552433732313a207472616e7366657220746f20746865207a65726f2061646460008201527f7265737300000000000000000000000000000000000000000000000000000000602082015250565b7f4552433732313a20617070726f766520746f2063616c6c657200000000000000600082015250565b7f534547554e44415f50414c415652410000000000000000000000000000000000600082015250565b7f3c2f746578743e3c2f7376673e00000000000000000000000000000000000000600082015250565b7f4552433732313a2061646472657373207a65726f206973206e6f74206120766160008201527f6c6964206f776e65720000000000000000000000000000000000000000000000602082015250565b7f5052494d454952415f50414c4156524100000000000000000000000000000000600082015250565b7f45524337323155524953746f726167653a2055524920736574206f66206e6f6e60008201527f6578697374656e7420746f6b656e000000000000000000000000000000000000602082015250565b7f227d000000000000000000000000000000000000000000000000000000000000600082015250565b7f4552433732313a206d696e7420746f20746865207a65726f2061646472657373600082015250565b7f54455243454952415f50414c4156524100000000000000000000000000000000600082015250565b7f7b226e616d65223a202200000000000000000000000000000000000000000000600082015250565b7f4552433732313a20696e76616c696420746f6b656e2049440000000000000000600082015250565b7f4552433732313a20617070726f76616c20746f2063757272656e74206f776e6560008201527f7200000000000000000000000000000000000000000000000000000000000000602082015250565b7f646174613a6170706c69636174696f6e2f6a736f6e3b6261736536342c000000600082015250565b7f4552433732313a20617070726f76652063616c6c6572206973206e6f7420746f60008201527f6b656e206f776e6572206f7220617070726f76656420666f7220616c6c000000602082015250565b7f222c20226465736372697074696f6e223a2022556d6120636f6c6563616f206160008201527f636c616d61646120652066616d6f7361206465204e465473206d61726176696c60208201527f686f736f732e222c2022696d616765223a2022646174613a696d6167652f737660408201527f672b786d6c3b6261736536342c00000000000000000000000000000000000000606082015250565b61380781613111565b811461381257600080fd5b50565b61381e81613123565b811461382957600080fd5b50565b6138358161312f565b811461384057600080fd5b50565b61384c8161317b565b811461385757600080fd5b5056fe556d204e465420636f6d20494420257320666f692063756e6861646f20706172612025734142434445464748494a4b4c4d4e4f505152535455565758595a6162636465666768696a6b6c6d6e6f707172737475767778797a303132333435363738392b2fa2646970667358221220698009ab5fe085bfc910ca66ffa6c9e33b1ba0f07e4eeafe9d3e3031dec6d00764736f6c634300080100333c7376672020786d6c6e733d27687474703a2f2f7777772e77332e6f72672f323030302f7376672720207072657365727665417370656374526174696f3d27784d696e594d696e206d65657427202076696577426f783d273020302033353020333530273e20203c646566733e202020203c6c696e6561724772616469656e742069643d274772616469656e7431273e2020202020203c73746f7020636c6173733d2773746f703127206f66667365743d273025272f3e2020202020203c73746f7020636c6173733d2773746f703227206f66667365743d27353025272f3e2020202020203c73746f7020636c6173733d2773746f703327206f66667365743d2731303025272f3e202020203c2f6c696e6561724772616469656e743e20203c2f646566733e20203c7374796c653e202020202e62617365207b20202020202066696c6c3a20626c75653b202020202020666f6e742d66616d696c793a2073657269663b202020202020666f6e742d73697a653a20323070783b202020202020636f6c6f723a20234646463b202020207d202020202e73746f7031207b2073746f702d636f6c6f723a20677265656e3b207d202020202e73746f7032207b2073746f702d636f6c6f723a2077686974653b2073746f702d6f7061636974793a20303b207d202020202e73746f7033207b2073746f702d636f6c6f723a2079656c6c6f773b207d2020202020203c2f7374796c653e20203c726563742077696474683d273130302527206865696768743d2731303025272066696c6c3d2775726c28234772616469656e74312927202f3e20203c7465787420202020783d273530252720202020793d273530252720202020636c6173733d27626173652720202020646f6d696e616e742d626173656c696e653d276d6964646c652720202020746578742d616e63686f723d276d6964646c652720203e",
  "linkReferences": {},
  "deployedLinkReferences": {}
}